{
  "_format": "hh-sol-artifact-1",
  "contractName": "ProductRegistry",
  "sourceName": "contracts/ProductRegistry.sol",
  "abi": [
    {
      "anonymous": false,
      "inputs": [
        {
          "indexed": false,
          "internalType": "uint256",
          "name": "id",
          "type": "uint256"
        },
        {
          "indexed": false,
          "internalType": "string",
          "name": "name",
          "type": "string"
        },
        {
          "indexed": false,
          "internalType": "string",
          "name": "producerAddress",
          "type": "string"
        },
        {
          "indexed": false,
          "internalType": "string",
          "name": "harvestDate",
          "type": "string"
        },
        {
          "indexed": false,
          "internalType": "string",
          "name": "packagingDate",
          "type": "string"
        },
        {
          "indexed": false,
          "internalType": "string",
          "name": "expiryDate",
          "type": "string"
        },
        {
          "indexed": true,
          "internalType": "address",
          "name": "owner",
          "type": "address"
        }
      ],
      "name": "ProductRegistered",
      "type": "event"
    },
    {
      "inputs": [
        {
          "internalType": "uint256",
          "name": "_id",
          "type": "uint256"
        }
      ],
      "name": "getProduct",
      "outputs": [
        {
          "internalType": "uint256",
          "name": "",
          "type": "uint256"
        },
        {
          "internalType": "string",
          "name": "",
          "type": "string"
        },
        {
          "internalType": "string",
          "name": "",
          "type": "string"
        },
        {
          "internalType": "string",
          "name": "",
          "type": "string"
        },
        {
          "internalType": "string",
          "name": "",
          "type": "string"
        },
        {
          "internalType": "string",
          "name": "",
          "type": "string"
        },
        {
          "internalType": "address",
          "name": "",
          "type": "address"
        },
        {
          "internalType": "uint256",
          "name": "",
          "type": "uint256"
        }
      ],
      "stateMutability": "view",
      "type": "function"
    },
    {
      "inputs": [],
      "name": "productCount",
      "outputs": [
        {
          "internalType": "uint256",
          "name": "",
          "type": "uint256"
        }
      ],
      "stateMutability": "view",
      "type": "function"
    },
    {
      "inputs": [
        {
          "internalType": "uint256",
          "name": "",
          "type": "uint256"
        }
      ],
      "name": "products",
      "outputs": [
        {
          "internalType": "uint256",
          "name": "id",
          "type": "uint256"
        },
        {
          "internalType": "string",
          "name": "name",
          "type": "string"
        },
        {
          "internalType": "string",
          "name": "producerAddress",
          "type": "string"
        },
        {
          "internalType": "string",
          "name": "harvestDate",
          "type": "string"
        },
        {
          "internalType": "string",
          "name": "packagingDate",
          "type": "string"
        },
        {
          "internalType": "string",
          "name": "expiryDate",
          "type": "string"
        },
        {
          "internalType": "address",
          "name": "owner",
          "type": "address"
        },
        {
          "internalType": "uint256",
          "name": "timestamp",
          "type": "uint256"
        }
      ],
      "stateMutability": "view",
      "type": "function"
    },
    {
      "inputs": [
        {
          "internalType": "string",
          "name": "_name",
          "type": "string"
        },
        {
          "internalType": "string",
          "name": "_producerAddress",
          "type": "string"
        },
        {
          "internalType": "string",
          "name": "_harvestDate",
          "type": "string"
        },
        {
          "internalType": "string",
          "name": "_packagingDate",
          "type": "string"
        },
        {
          "internalType": "string",
          "name": "_expiryDate",
          "type": "string"
        }
      ],
      "name": "registerProduct",
      "outputs": [],
      "stateMutability": "nonpayable",
      "type": "function"
    }
  ],
  "bytecode": "0x608060405234801561001057600080fd5b50610cf3806100206000396000f3fe608060405234801561001057600080fd5b506004361061004c5760003560e01c80637acc0b2014610051578063b9db15b414610081578063c49f977514610094578063e0f6ef87146100a9575b600080fd5b61006461005f366004610878565b6100c0565b6040516100789897969594939291906108d7565b60405180910390f35b61006461008f366004610878565b6103b2565b6100a76100a2366004610a05565b61072a565b005b6100b260005481565b604051908152602001610078565b6001602081905260009182526040909120805491810180546100e190610ad7565b80601f016020809104026020016040519081016040528092919081815260200182805461010d90610ad7565b801561015a5780601f1061012f5761010080835404028352916020019161015a565b820191906000526020600020905b81548152906001019060200180831161013d57829003601f168201915b50505050509080600201805461016f90610ad7565b80601f016020809104026020016040519081016040528092919081815260200182805461019b90610ad7565b80156101e85780601f106101bd576101008083540402835291602001916101e8565b820191906000526020600020905b8154815290600101906020018083116101cb57829003601f168201915b5050505050908060030180546101fd90610ad7565b80601f016020809104026020016040519081016040528092919081815260200182805461022990610ad7565b80156102765780601f1061024b57610100808354040283529160200191610276565b820191906000526020600020905b81548152906001019060200180831161025957829003601f168201915b50505050509080600401805461028b90610ad7565b80601f01602080910402602001604051908101604052809291908181526020018280546102b790610ad7565b80156103045780601f106102d957610100808354040283529160200191610304565b820191906000526020600020905b8154815290600101906020018083116102e757829003601f168201915b50505050509080600501805461031990610ad7565b80601f016020809104026020016040519081016040528092919081815260200182805461034590610ad7565b80156103925780601f1061036757610100808354040283529160200191610392565b820191906000526020600020905b81548152906001019060200180831161037557829003601f168201915b50505050600683015460079093015491926001600160a01b031691905088565b600060608060608060606000806000600160008b815260200190815260200160002060405180610100016040529081600082015481526020016001820180546103fa90610ad7565b80601f016020809104026020016040519081016040528092919081815260200182805461042690610ad7565b80156104735780601f1061044857610100808354040283529160200191610473565b820191906000526020600020905b81548152906001019060200180831161045657829003601f168201915b5050505050815260200160028201805461048c90610ad7565b80601f01602080910402602001604051908101604052809291908181526020018280546104b890610ad7565b80156105055780601f106104da57610100808354040283529160200191610505565b820191906000526020600020905b8154815290600101906020018083116104e857829003601f168201915b5050505050815260200160038201805461051e90610ad7565b80601f016020809104026020016040519081016040528092919081815260200182805461054a90610ad7565b80156105975780601f1061056c57610100808354040283529160200191610597565b820191906000526020600020905b81548152906001019060200180831161057a57829003601f168201915b505050505081526020016004820180546105b090610ad7565b80601f01602080910402602001604051908101604052809291908181526020018280546105dc90610ad7565b80156106295780601f106105fe57610100808354040283529160200191610629565b820191906000526020600020905b81548152906001019060200180831161060c57829003601f168201915b5050505050815260200160058201805461064290610ad7565b80601f016020809104026020016040519081016040528092919081815260200182805461066e90610ad7565b80156106bb5780601f10610690576101008083540402835291602001916106bb565b820191906000526020600020905b81548152906001019060200180831161069e57829003601f168201915b505050918352505060068201546001600160a01b0316602080830191909152600790920154604091820152825191830151908301516060840151608085015160a086015160c087015160e090970151959f50939d50919b50995097509550909350915050919395975091939597565b60008054908061073983610b11565b909155505060408051610100810182526000805480835260208084018a81528486018a9052606085018990526080850188905260a085018790523360c08601524260e08601529183526001908190529390912082518155905191929091908201906107a49082610b89565b50604082015160028201906107b99082610b89565b50606082015160038201906107ce9082610b89565b50608082015160048201906107e39082610b89565b5060a082015160058201906107f89082610b89565b5060c08201516006820180546001600160a01b0319166001600160a01b0390921691909117905560e09091015160079091015560005460405133917f3b06ef49de337642571acb846701cfd70e72b9ef9df2b01cae49eb5ba7a5277791610869919089908990899089908990610c49565b60405180910390a25050505050565b60006020828403121561088a57600080fd5b5035919050565b6000815180845260005b818110156108b75760208185018101518683018201520161089b565b506000602082860101526020601f19601f83011685010191505092915050565b60006101008a83528060208401526108f18184018b610891565b90508281036040840152610905818a610891565b905082810360608401526109198189610891565b9050828103608084015261092d8188610891565b905082810360a08401526109418187610891565b6001600160a01b039590951660c0840152505060e001529695505050505050565b634e487b7160e01b600052604160045260246000fd5b600082601f83011261098957600080fd5b813567ffffffffffffffff808211156109a4576109a4610962565b604051601f8301601f19908116603f011681019082821181831017156109cc576109cc610962565b816040528381528660208588010111156109e557600080fd5b836020870160208301376000602085830101528094505050505092915050565b600080600080600060a08688031215610a1d57600080fd5b853567ffffffffffffffff80821115610a3557600080fd5b610a4189838a01610978565b96506020880135915080821115610a5757600080fd5b610a6389838a01610978565b95506040880135915080821115610a7957600080fd5b610a8589838a01610978565b94506060880135915080821115610a9b57600080fd5b610aa789838a01610978565b93506080880135915080821115610abd57600080fd5b50610aca88828901610978565b9150509295509295909350565b600181811c90821680610aeb57607f821691505b602082108103610b0b57634e487b7160e01b600052602260045260246000fd5b50919050565b600060018201610b3157634e487b7160e01b600052601160045260246000fd5b5060010190565b601f821115610b84576000816000526020600020601f850160051c81016020861015610b615750805b601f850160051c820191505b81811015610b8057828155600101610b6d565b5050505b505050565b815167ffffffffffffffff811115610ba357610ba3610962565b610bb781610bb18454610ad7565b84610b38565b602080601f831160018114610bec5760008415610bd45750858301515b600019600386901b1c1916600185901b178555610b80565b600085815260208120601f198616915b82811015610c1b57888601518255948401946001909101908401610bfc565b5085821015610c395787850151600019600388901b60f8161c191681555b5050505050600190811b01905550565b86815260c060208201526000610c6260c0830188610891565b8281036040840152610c748188610891565b90508281036060840152610c888187610891565b90508281036080840152610c9c8186610891565b905082810360a0840152610cb08185610891565b999850505050505050505056fea26469706673582212204eac3b8c419d291f6891d5a42348a6746b2f731a7a7c44391df5fdc085f166a964736f6c63430008180033",
  "linkReferences": {},
  "deployedLinkReferences": {}
}