{
  "_format": "hh-sol-artifact-1",
  "contractName": "ProductRegistry",
  "sourceName": "contracts/ProductRegistry.sol",
  "abi": [
    {
      "anonymous": false,
      "inputs": [
        {
          "indexed": false,
          "internalType": "uint256",
          "name": "id",
          "type": "uint256"
        },
        {
          "indexed": false,
          "internalType": "string",
          "name": "name",
          "type": "string"
        },
        {
          "indexed": false,
          "internalType": "string",
          "name": "producerAddress",
          "type": "string"
        },
        {
          "indexed": false,
          "internalType": "string",
          "name": "harvestDate",
          "type": "string"
        },
        {
          "indexed": false,
          "internalType": "string",
          "name": "packagingDate",
          "type": "string"
        },
        {
          "indexed": false,
          "internalType": "string",
          "name": "expiryDate",
          "type": "string"
        },
        {
          "indexed": false,
          "internalType": "string",
          "name": "location",
          "type": "string"
        },
        {
          "indexed": true,
          "internalType": "address",
          "name": "owner",
          "type": "address"
        }
      ],
      "name": "ProductRegistered",
      "type": "event"
    },
    {
      "inputs": [
        {
          "internalType": "uint256",
          "name": "_id",
          "type": "uint256"
        }
      ],
      "name": "getProduct",
      "outputs": [
        {
          "internalType": "uint256",
          "name": "",
          "type": "uint256"
        },
        {
          "internalType": "string",
          "name": "",
          "type": "string"
        },
        {
          "internalType": "string",
          "name": "",
          "type": "string"
        },
        {
          "internalType": "string",
          "name": "",
          "type": "string"
        },
        {
          "internalType": "string",
          "name": "",
          "type": "string"
        },
        {
          "internalType": "string",
          "name": "",
          "type": "string"
        },
        {
          "internalType": "string",
          "name": "",
          "type": "string"
        },
        {
          "internalType": "address",
          "name": "",
          "type": "address"
        },
        {
          "internalType": "uint256",
          "name": "",
          "type": "uint256"
        }
      ],
      "stateMutability": "view",
      "type": "function"
    },
    {
      "inputs": [],
      "name": "productCount",
      "outputs": [
        {
          "internalType": "uint256",
          "name": "",
          "type": "uint256"
        }
      ],
      "stateMutability": "view",
      "type": "function"
    },
    {
      "inputs": [
        {
          "internalType": "uint256",
          "name": "",
          "type": "uint256"
        }
      ],
      "name": "products",
      "outputs": [
        {
          "internalType": "uint256",
          "name": "id",
          "type": "uint256"
        },
        {
          "internalType": "string",
          "name": "name",
          "type": "string"
        },
        {
          "internalType": "string",
          "name": "producerAddress",
          "type": "string"
        },
        {
          "internalType": "string",
          "name": "harvestDate",
          "type": "string"
        },
        {
          "internalType": "string",
          "name": "packagingDate",
          "type": "string"
        },
        {
          "internalType": "string",
          "name": "expiryDate",
          "type": "string"
        },
        {
          "internalType": "string",
          "name": "location",
          "type": "string"
        },
        {
          "internalType": "address",
          "name": "owner",
          "type": "address"
        },
        {
          "internalType": "uint256",
          "name": "timestamp",
          "type": "uint256"
        }
      ],
      "stateMutability": "view",
      "type": "function"
    },
    {
      "inputs": [
        {
          "internalType": "string",
          "name": "_name",
          "type": "string"
        },
        {
          "internalType": "string",
          "name": "_producerAddress",
          "type": "string"
        },
        {
          "internalType": "string",
          "name": "_harvestDate",
          "type": "string"
        },
        {
          "internalType": "string",
          "name": "_packagingDate",
          "type": "string"
        },
        {
          "internalType": "string",
          "name": "_expiryDate",
          "type": "string"
        },
        {
          "internalType": "string",
          "name": "_location",
          "type": "string"
        }
      ],
      "name": "registerProduct",
      "outputs": [],
      "stateMutability": "nonpayable",
      "type": "function"
    }
  ],
  "bytecode": "0x608060405234801561001057600080fd5b50610eb7806100206000396000f3fe608060405234801561001057600080fd5b506004361061004c5760003560e01c80637acc0b201461005157806393a31a9814610082578063b9db15b414610097578063e0f6ef87146100aa575b600080fd5b61006461005f3660046109ee565b6100c1565b60405161007999989796959493929190610a4d565b60405180910390f35b610095610090366004610b91565b610441565b005b6100646100a53660046109ee565b6105c0565b6100b360005481565b604051908152602001610079565b6001602081905260009182526040909120805491810180546100e290610c86565b80601f016020809104026020016040519081016040528092919081815260200182805461010e90610c86565b801561015b5780601f106101305761010080835404028352916020019161015b565b820191906000526020600020905b81548152906001019060200180831161013e57829003601f168201915b50505050509080600201805461017090610c86565b80601f016020809104026020016040519081016040528092919081815260200182805461019c90610c86565b80156101e95780601f106101be576101008083540402835291602001916101e9565b820191906000526020600020905b8154815290600101906020018083116101cc57829003601f168201915b5050505050908060030180546101fe90610c86565b80601f016020809104026020016040519081016040528092919081815260200182805461022a90610c86565b80156102775780601f1061024c57610100808354040283529160200191610277565b820191906000526020600020905b81548152906001019060200180831161025a57829003601f168201915b50505050509080600401805461028c90610c86565b80601f01602080910402602001604051908101604052809291908181526020018280546102b890610c86565b80156103055780601f106102da57610100808354040283529160200191610305565b820191906000526020600020905b8154815290600101906020018083116102e857829003601f168201915b50505050509080600501805461031a90610c86565b80601f016020809104026020016040519081016040528092919081815260200182805461034690610c86565b80156103935780601f1061036857610100808354040283529160200191610393565b820191906000526020600020905b81548152906001019060200180831161037657829003601f168201915b5050505050908060060180546103a890610c86565b80601f01602080910402602001604051908101604052809291908181526020018280546103d490610c86565b80156104215780601f106103f657610100808354040283529160200191610421565b820191906000526020600020905b81548152906001019060200180831161040457829003601f168201915b50505050600783015460089093015491926001600160a01b031691905089565b60008054908061045083610cc0565b91905055506040518061012001604052806000548152602001878152602001868152602001858152602001848152602001838152602001828152602001336001600160a01b031681526020014281525060016000805481526020019081526020016000206000820151816000015560208201518160010190816104d39190610d38565b50604082015160028201906104e89082610d38565b50606082015160038201906104fd9082610d38565b50608082015160048201906105129082610d38565b5060a082015160058201906105279082610d38565b5060c0820151600682019061053c9082610d38565b5060e08201516007820180546001600160a01b0319166001600160a01b039092169190911790556101009091015160089091015560005460405133917fdb3ea089a49cabce088481e9b34c3e539aa78e75e2c3f0243d429cb2b70dd400916105b091908a908a908a908a908a908a90610df8565b60405180910390a2505050505050565b60006060806060806060806000806000600160008c8152602001908152602001600020604051806101200160405290816000820154815260200160018201805461060990610c86565b80601f016020809104026020016040519081016040528092919081815260200182805461063590610c86565b80156106825780601f1061065757610100808354040283529160200191610682565b820191906000526020600020905b81548152906001019060200180831161066557829003601f168201915b5050505050815260200160028201805461069b90610c86565b80601f01602080910402602001604051908101604052809291908181526020018280546106c790610c86565b80156107145780601f106106e957610100808354040283529160200191610714565b820191906000526020600020905b8154815290600101906020018083116106f757829003601f168201915b5050505050815260200160038201805461072d90610c86565b80601f016020809104026020016040519081016040528092919081815260200182805461075990610c86565b80156107a65780601f1061077b576101008083540402835291602001916107a6565b820191906000526020600020905b81548152906001019060200180831161078957829003601f168201915b505050505081526020016004820180546107bf90610c86565b80601f01602080910402602001604051908101604052809291908181526020018280546107eb90610c86565b80156108385780601f1061080d57610100808354040283529160200191610838565b820191906000526020600020905b81548152906001019060200180831161081b57829003601f168201915b5050505050815260200160058201805461085190610c86565b80601f016020809104026020016040519081016040528092919081815260200182805461087d90610c86565b80156108ca5780601f1061089f576101008083540402835291602001916108ca565b820191906000526020600020905b8154815290600101906020018083116108ad57829003601f168201915b505050505081526020016006820180546108e390610c86565b80601f016020809104026020016040519081016040528092919081815260200182805461090f90610c86565b801561095c5780601f106109315761010080835404028352916020019161095c565b820191906000526020600020905b81548152906001019060200180831161093f57829003601f168201915b505050505081526020016007820160009054906101000a90046001600160a01b03166001600160a01b03166001600160a01b031681526020016008820154815250509050806000015181602001518260400151836060015184608001518560a001518660c001518760e00151886101000151995099509950995099509950995099509950509193959799909294969850565b600060208284031215610a0057600080fd5b5035919050565b6000815180845260005b81811015610a2d57602081850181015186830182015201610a11565b506000602082860101526020601f19601f83011685010191505092915050565b60006101208b8352806020840152610a678184018c610a07565b90508281036040840152610a7b818b610a07565b90508281036060840152610a8f818a610a07565b90508281036080840152610aa38189610a07565b905082810360a0840152610ab78188610a07565b905082810360c0840152610acb8187610a07565b6001600160a01b039590951660e084015250506101000152979650505050505050565b634e487b7160e01b600052604160045260246000fd5b600082601f830112610b1557600080fd5b813567ffffffffffffffff80821115610b3057610b30610aee565b604051601f8301601f19908116603f01168101908282118183101715610b5857610b58610aee565b81604052838152866020858801011115610b7157600080fd5b836020870160208301376000602085830101528094505050505092915050565b60008060008060008060c08789031215610baa57600080fd5b863567ffffffffffffffff80821115610bc257600080fd5b610bce8a838b01610b04565b97506020890135915080821115610be457600080fd5b610bf08a838b01610b04565b96506040890135915080821115610c0657600080fd5b610c128a838b01610b04565b95506060890135915080821115610c2857600080fd5b610c348a838b01610b04565b94506080890135915080821115610c4a57600080fd5b610c568a838b01610b04565b935060a0890135915080821115610c6c57600080fd5b50610c7989828a01610b04565b9150509295509295509295565b600181811c90821680610c9a57607f821691505b602082108103610cba57634e487b7160e01b600052602260045260246000fd5b50919050565b600060018201610ce057634e487b7160e01b600052601160045260246000fd5b5060010190565b601f821115610d33576000816000526020600020601f850160051c81016020861015610d105750805b601f850160051c820191505b81811015610d2f57828155600101610d1c565b5050505b505050565b815167ffffffffffffffff811115610d5257610d52610aee565b610d6681610d608454610c86565b84610ce7565b602080601f831160018114610d9b5760008415610d835750858301515b600019600386901b1c1916600185901b178555610d2f565b600085815260208120601f198616915b82811015610dca57888601518255948401946001909101908401610dab565b5085821015610de85787850151600019600388901b60f8161c191681555b5050505050600190811b01905550565b87815260e060208201526000610e1160e0830189610a07565b8281036040840152610e238189610a07565b90508281036060840152610e378188610a07565b90508281036080840152610e4b8187610a07565b905082810360a0840152610e5f8186610a07565b905082810360c0840152610e738185610a07565b9a995050505050505050505056fea2646970667358221220e8a30bfece7602914916b79f3c44ed1ca9698876ce10599e3dccea0c20ef75eb64736f6c63430008180033",
  "linkReferences": {},
  "deployedLinkReferences": {}
}